:10000000BDEF17F00000000000EF00F0000000005E
:0A0010000000000000000000F3D71C
:0E001C00010119B102D08B9801D08B8812001F
:0E002A00010119B102D08B9601D08B86120015
:0E003800010119B102D08D9601D08D86120003
:0E004600010119B102D0899401D08984120001
:0E005400010119B102D08B9C01D08B8C1200DF
:0E006200010119B102D08B9401D08B841200E1
:0E007000010119B102D08B9A01D08B8A1200C7
:0E007E00010119B102D08B9E01D08B8E1200B1
:0E008C00010119B102D08A9201D08A821200BD
:0E009A00010119B102D08D9401D08D841200A5
:0E00A800010119B102D08F9201D08F82120097
:0E00B600010119B102D08F9401D08F84120085
:0E00C400010119B102D08B9801D08B88120077
:0E00D200010119B102D08B9601D08B8612006D
:0E00E000010119B102D08A9401D08A84120065
:0E00EE00010119B102D08B9801D08B8812004D
:0E00FC00010119B102D08B9601D08B86120043
:0E010A00010119B102D08F9001D08F80120038
:0E011800010119B102D08B9A01D08B8A12001E
:0E012600010119B102D08B9801D08B88120014
:0E013400010119B102D08B9601D08B8612000A
:0E014200010119B102D08B9201D08B82120004
:0E015000010119B102D08B9A01D08B8A1200E6
:0E015E00010119B102D08D9001D08D801200E8
:10016C000F0121B302D00000FBD719C11CFF1200F4
:0E017C00ACB202D00000FCD719C1ADFF1200DA
:0E018A00010119B102D08B9001D08B801200C0
:0E019800010119B102D0899001D089801200B6
:0E01A600010119B102D08A9001D08A801200A6
:0E01B400010119B102D08D9201D08D8212008E
:0E01C200010119B102D0899801D0898812007C
:0E01D000010119B102D08B9801D08B8812006A
:0E01DE00010119B102D08B9601D08B86120060
:0E01EC00010119B102D0899201D0898212005E
:0E01FA00010119B102D08B9C01D08B8C120038
:0E020800010119B102D08B9E01D08B8E120025
:0E021600010119B102D08B9801D08B88120023
:0E022400010119B102D08B9601D08B86120019
:1002320068B409D01F0E6614016E0150000A03E172
:0A024200010E006E01D0006A1200E8
:10024C00F250026EF29E0500FF6A0150FE6E0050E5
:08025C00FD6E02BEF28E1200DD
:10026400C7B409D01F0EC514016E0150000A03E182
:0A027400010E006E01D0006A1200B6
:0A027E00000E82B8010E006E12009F
:0A028800000E82BE010E006E12008F
:0A029200000EA4BA010E006E120067
:0A029C00000E82B6010E006E120083
:0A02A600000E82B8010E006E120077
:0A02B000000E82BA010E006E12006B
:0A02BA00000E82B2010E006E120069
:0A02C400000E81B0010E006E120062
:0A02CE00000EACB2010E006E12002B
:1002D8001DCF01F00F0122A302D02299228901C06B
:0402E80000F0120010
:1002EC00AECF01F0ABA202D0AB98AB8801C000F04E
:0202FC001200EE
:0A02FE00000E9EBA010E006E120001
:0A030800000E80B0010E006E12001E
:0C031200000E0F0121B3010E006E12005E
:0A031E00000E84B0010E006E120004
:0A032800000E82B0010E006E1200FC
:0A033200000E82BE010E006E1200E4
:0A033C00000E82BC010E006E1200DC
:0A034600000E82B4010E006E1200DA
:0A035000000E81B2010E006E1200D3
:0A035A00000E80B4010E006E1200C8
:0A036400000E84B6010E006E1200B8
:0A036E00000E82B6010E006E1200B0
:0A037800000E82B8010E006E1200A4
:0A038200000E80B2010E006E1200A2
:0A038C00000E80B8010E006E120092
:0A039600000E82BC010E006E120082
:0A03A000000E82B6010E006E12007E
:0A03AA00000E82B8010E006E120072
:0A03B400000E82BA010E006E120066
:0A03BE00000E84B2010E006E120062
:0A03C800000E82B6010E006E120056
:0A03D200000E84B4010E006E12004C
:0403DC00C5841200C2
:1003E00049C013F14AC014F14BC015F14CC016F1CD
:1003F000668266A21FD049504A104B104C1019E07B
:10040000010113511411151116110CE16DC0E1FF1A
:100410006EC0E2FF060EE66E6BC000F06CC001F02D
:1004200015DF08D0010E0101135F000E145B155B90
:06043000165BDFD712008D
:1004360045C013F146C014F147C015F148C016F186
:10044600C582C5A21FD0455046104710481019E076
:10045600010113511411151116110CE1B6C0E1FF7B
:10046600B7C0E2FF060EE66EB4C000F0B5C001F0FC
:10047600EADE08D0010E0101135F000E145B155B66
:06048600165BDFD7120037
:10048C0049C015F14AC016F14BC017F14CC018F118
:10049C00A19A6686A1BA1FD049504A104B104C1035
:1004AC0019E0010115511611171118110CE16DC04D
:1004BC00E1FF6EC0E2FF030EE66E6BC000F06CC095
:1004CC0001F0BEDE08D0010E0101155F000E165BB7
:1004DC00175B185BDFD701016ACF14F11351000AC7
:1004EC0002E1668A01D0669AA19A668849C015F124
:1004FC004AC016F14BC017F14CC018F1A1BA1FD06D
:10050C0049504A104B104C1019E0010115511611AD
:10051C00171118110CE16DC0E1FF6EC0E2FF030E64
:10052C00E66E6BC000F06CC001F08ADE08D0010EE4
:10053C000101155F000E165B175B185BDFD714C14A
:04054C0000F01200A9
:10055000A19A13C16AFF49C014F14AC015F14BC0FA
:1005600016F14CC017F168A421D049504A104B1025
:100570004C101BE0010114511511161117110EE159
:100580006DC0E1FF6EC0E2FF040EE66E6BC000F0CE
:100590006CC001F05BDE010E006E3AD0010E01016D
:1005A000145F000E155B165B175BDDD749C014F1B5
:1005B0004AC015F14BC016F14CC017F1A1BA21D0B9
:1005C00049504A104B104C101BE0010114511511F9
:1005D000161117110EE16DC0E1FF6EC0E2FF040EAF
:1005E000E66E6BC000F06CC001F030DE010E006EF4
:1005F0000FD0010E0101145F000E155B165B175B37
:10060000DDD766BC02D0006A03D06684020E006E9D
:020610001200D6
:0406120066841200E8
:100616000B820BAE15EF03F00368026801680068F1
:080626000A360232FF0E120039
:0E062E00026A016A006A086A036A000E12007E
:08063C000AAE029E000E12003E
:1006440045C015F146C016F147C017F148C018F16E
:100654000101136B146B1451120802E113518E083B
:1006640008E3FEDD005201E004D00101134B142B1A
:10067400F2D70101120E145D02E18F0E135D03E344
:100684007B0E006E24D0C580C5A020D045504610F6
:10069400471048101AE015511611171118110EE1E0
:1006A400B6C0E1FFB7C0E2FF050EE66EB4C000F0CD
:1006B400B5C001F0C9DD010E006E09D0010E0101C3
:1006C400155F000E165B175B185BDED7006A12001D
:1006D4000B840BAE75EF03F0010E036E026A016A20
:0A06E400006A0A360232FF0E12000F
:1006EE009E9613C1C9FF45C014F146C015F147C00F
:1006FE0016F148C017F1C7A421D045504610471037
:10070E0048101BE0010114511511161117110EE1BD
:10071E00B6C0E1FFB7C0E2FF040EE66EB4C000F053
:10072E00B5C001F08CDD010E006E3AD0010E010154
:10073E00145F000E155B165B175BDDD745C014F119
:10074E0046C015F147C016F148C017F19EB621D02C
:10075E0045504610471048101BE001011451151169
:10076E00161117110EE1B6C0E1FFB7C0E2FF040E7D
:10077E00E66EB4C000F0B5C001F061DD010E006E92
:10078E000FD0010E0101145F000E155B165B175B97
:10079E00DDD7C5BC02D0006A03D0C584020E006E40
:0207AE00120037
:0A07B000000E82BA010E006E120066
:0A07BA00000E86B0010E006E120062
:0A07C400000E82B8010E006E120054
:1007CE0049C015F14AC016F14BC017F14CC018F1D3
:1007DE000101136B146B1451120802E113518E08B0
:1007EE0008E320DD005201E004D00101134B142B6D
:1007FE00F2D70101120E145D02E18F0E135D03E3B9
:10080E007B0E006E24D0668066A020D049504A1020
:10081E004B104C101AE015511611171118110EE14C
:10082E006DC0E1FF6EC0E2FF050EE66E6BC000F01C
:10083E006CC001F004DD010E006E09D0010E010145
:10084E00155F000E165B175B185BDED7006A120091
:0A085E00000E82B6010E006E1200BB
:0A086800000E81B4010E006E1200B4
:0A087200000E82B8010E006E1200A5
:10087C0045C015F146C016F147C017F148C018F134
:10088C009E96C5869EB61FD0455046104710481000
:10089C0019E0010115511611171118110CE1B6C010
:1008AC00E1FFB7C0E2FF030EE66EB4C000F0B5C0C6
:1008BC0001F0C6DC08D0010E0101155F000E165BBD
:1008CC00175B185BDFD70101C9CF14F11351000A74
:1008DC0002E1C58A01D0C59A9E96C58845C015F11E
:1008EC0046C016F147C017F148C018F19EB61FD08C
:1008FC00455046104710481019E0010115511611CA
:10090C00171118110CE1B6C0E1FFB7C0E2FF030EDE
:10091C00E66EB4C000F0B5C001F092DC08D0010E58
:10092C000101155F000E165B175B185BDFD714C156
:04093C0000F01200B5
:0A094000000E82B6010E006E1200D8
:0A094A00000E86B4010E006E1200CC
:0A095400000E86B2010E006E1200C4
:10095E000CB0F1EF04F00CA297EF05F00E6A000E4A
:10096E00026408EF05F0F00E0214D8A4D3EF04F0E1
:10097E00023A01380F0B02260138F00B016E0038D7
:10098E000F0B01260038F00B006E08380F0B0026F7
:10099E000838F00B086E0E84D89002BEECEF04F00F
:1009AE0008360036013602360E2A02BEECEF04F08F
:1009BE0008360036013602360E2A02BEECEF04F07F
:1009CE0008360036013602360E2A0E5003648DEFBD
:1009DE0005F0035E0BBC08AE92EF05F0D880800EDA
:1009EE0008640030000E002201220222D8A092EFED
:1009FE0005F0023201320032034A97EF05F092EF12
:100A0E0005F001C002F000C001F008C000F0086A55
:100A1E00000E0E8602643FEF05F0F00E0214D8A40D
:100A2E0027EF05F0023A01380F0B02260138F00BC2
:100A3E00016E00380F0B01260038F00B006E0E848D
:100A4E00D89002BEECEF04F00036013602360E2AC4
:100A5E0002BEECEF04F00036013602360E2A02BE5C
:100A6E00ECEF04F00036013602360E2AECEF04F0FD
:100A7E0001C002F000C001F0006A000E0E960E8852
:100A8E0002646CEF05F0F00E0214D8A457EF05F0D7
:100A9E00023A01380F0B02260138F00B016E0E845C
:100AAE00D89002BEECEF04F0013602360E2A02BEDA
:100ABE00ECEF04F0013602360E2A02BEECEF04F023
:100ACE00013602360E2AECEF04F001C002F0016A84
:100ADE00000E0E8602649CEF05F0F00E0214D8A4F0
:100AEE007BEF05F0023A0E84D89002BEECEF04F0D4
:100AFE0002360E2A02BEECEF04F002360E2A02BEB9
:100B0E00ECEF04F002360E2AECEF04F0010E0C6E40
:100B1E00DADD9FEF05F0020E0C6E89DD9FEF05F01A
:100B2E00040E0C6E71DD9FEF05F0080E0C6E78DD75
:020B3E001200A3
:100B40000101096B0A6B9BC000F09CC001F026EC10
:100B500001F000C009F1000E01010A6F09C100F0A7
:060B60000AC101F01200C1
:100B6600025006180E6E086A096A0B6A035007647B
:100B7600A6EF06F006500A6E068E028E03500B6E26
:100B86000750036E000E0B64F6EF05F00B50075E80
:100B9600D8B497EF06F0070E076465EF06F0075E18
:100BA60000C008F001C000F002C001F0026A074E62
:100BB60097EF06F007643AEF06F0075E00C008F00C
:100BC60001C000F0016A074E97EF06F0076418EFC0
:100BD60006F0075E00C008F0006A074E97EF06F0C1
:100BE6000764FFEF05F00AC002F005C001F004C07B
:100BF60000F0086AC1EF07F0030E07640AEF06F07B
:100C0600075E08380F0B086E074E97EF06F0D89070
:100C16000832074E97EF06F0D8900832074E97EF46
:100C260006F0D890083297EF06F0030E076429EF16
:100C360006F0075E08380F0B086E0038F00B082622
:100C460000380F0B006E074E97EF06F0D890003273
:100C56000832074E97EF06F0D89000320832074E5A
:100C660097EF06F0D8900032083297EF06F0030EA1
:100C7600076451EF06F0075E08380F0B086E003860
:100C8600F00B082600380F0B006E0138F00B00261B
:100C960001380F0B016E074E97EF06F0D890013220
:100CA60000320832074E97EF06F0D8900132003234
:100CB6000832074E97EF06F0D8900132003208321C
:100CC60097EF06F0030E076482EF06F0075E08381A
:100CD6000F0B086E0038F00B082600380F0B006E5D
:100CE6000138F00B002601380F0B016E0238F00BAD
:100CF600012602380F0B026E074E97EF06F0D890CA
:100D06000232013200320832074E97EF06F0D890D1
:100D16000232013200320832074E97EF06F0D890C1
:100D26000232013200320832096A000E0EAE8BEF33
:100D360007F0081E001E011E021E082A00220122BC
:100D460002228BEF07F00750D8A4ACEF06F0C1EFF4
:100D560007F0096A02C00AF0028E068E0750035C8D
:100D6600076ED8B47EEF07F0070E07644CEF07F066
:100D7600075E0450096E0550046E0650056E066A3D
:100D8600074E7EEF07F0070E076421EF07F0075EB8
:100D96000450096E0550046E056A074E7EEF07F093
:100DA600070E0764FFEF06F0075E0450096E046A3B
:100DB600074E7EEF07F0070E0764E6EF06F00AC05F
:100DC60002F0C1EF07F0030E0764F1EF06F0075ECD
:100DD60009380F0B096E074E7EEF07F0D8900932DF
:100DE600074E7EEF07F0D8900932074E7EEF07F0E8
:100DF600D89009327EEF07F0030E076410EF07F074
:100E0600075E09380F0B096E0438F00B0926043803
:100E16000F0B046E074E7EEF07F0D89004320932AE
:100E2600074E7EEF07F0D89004320932074E7EEF68
:100E360007F0D890043209327EEF07F0030E0764FC
:100E460038EF07F0075E09380F0B096E0438F00B10
:100E5600092604380F0B046E0538F00B04260538F6
:100E66000F0B056E074E7EEF07F0D8900532043261
:100E76000932074E7EEF07F0D89005320432093268
:100E8600074E7EEF07F0D8900532043209327EEF26
:100E960007F0030E076469EF07F0075E09380F0BCA
:100EA600096E0438F00B092604380F0B046E05385A
:100EB600F00B042605380F0B056E0638F00B0526D9
:100EC60006380F0B066E074E7EEF07F0D8900632F7
:100ED600053204320932074E7EEF07F0D89006320B
:100EE600053204320932074E7EEF07F0D8900632FB
:100EF600053204320932086A000E0EAE8BEF07F097
:100F0600091E041E051E061E092A042205220622A3
:100F160009500826045000220550012206500222DC
:100F26000EBEA2EF07F0D8A0B1EF07F002320132F1
:100F360000320832033EB1EF07F0BBEF07F0D8B03E
:100F4600B6EF07F0000E081E001E011E021E082A3C
:100F56000022012202220A7EB6EF07F0010E0C6E75
:100F6600FBDCC3EF07F0020E0C6EF6DCC3EF07F0F6
:100F7600040E0C6E0BEC03F0C3EF07F0000E0C6EC4
:020F8600120057
:100F88000A6A0350D8A40A800750D8A40A820A50D3
:100F9800D8B427EF08F0030AD8B4E0EF07F00AB096
:100FA800DBEF07F006AE25EF08F023EF08F002AEFE
:100FB80023EF08F025EF08F00250800B0A6E029E1E
:100FC8000650800B069E0A18D8B4F1EF07F00A50B5
:100FD800D8B423EF08F025EF08F00750035CD8B425
:100FE800FBEF07F0D8A017EF08F01DEF08F0065048
:100FF800025CD8B405EF08F0D8A017EF08F01DEF91
:1010080008F00550015CD8B40FEF08F0D8A017EF2E
:1010180008F01DEF08F00450005CD8B427EF08F082
:10102800D8B01DEF08F00A52D8B425EF08F023EF26
:1010380008F00A52D8B423EF08F025EF08F0D8805A
:0E1048001200D8901200D880D8841200120036
:101056000101116B126B0AC10FF10BC110F109C12D
:1010660000F000360090008091C0E1FF92C0E2FFE0
:1010760000C0E6FF8FC000F090C001F026EC01F042
:10108600005001011113000E1213010E0C5F000E29
:101096000D5B0C510D1116E095C0E1FF96C0E2FF05
:1010A600010EE66E93C000F094C001F026EC01F04C
:1010B6000FC1E1FF10C1E2FF00C0E6FF01010F4BC7
:1010C600102BE3D795C0E1FF96C0E2FFE66A93C016
:1010D60000F094C001F026EC01F00FC1E1FF10C151
:1010E600E2FF00C0E6FF01010E51000A06E19FC0C3
:1010F60000F0A0C001F026EC01F001010E51010A3A
:1011060006E197C000F098C001F026EC01F011C18D
:0811160000F012C101F012000B
:10111E000C6A0E6A0250D8A4A8EF08F001C002F0C3
:10112E0000C001F0006A0E860250D8A4A8EF08F0A5
:10113E0001C002F0016A0E960E880250D8B4BAEFC2
:10114E0008F00E50035ED8A4D8A0C0EF08F0D890D7
:10115E0002BEC6EF08F0003601360236032EAFEFA0
:10116E0008F0C0EF08F0010E0C6E17EC03F0CAEF9A
:10117E0008F0020E0C6E6AEC03F0CAEF08F0040ED3
:08118E000C6E1EEC03F01200D0
:101196000101116B126B0AC10FF10BC110F109C1EC
:1011A60000F00036009091C0E1FF92C0E2FF00C05F
:1011B600E6FF8FC000F090C001F026EC01F0005071
:1011C60001011113000E12130CC100F00DC101F044
:1011D600010E0C5F000E0D5B0050011018E091C06F
:1011E600E1FF92C0E2FF0FC1E9FF10C1EAFFEECFB7
:1011F600E6FF8FC000F090C001F026EC01F0005031
:1012060001011113000E12130F4B102BDDD70E51D7
:10121600000A06E19FC000F0A0C001F026EC01F034
:1012260001010E51010A06E197C000F098C001F0D5
:0E12360026EC01F011C100F012C101F012000F
:081244000B6A0B86FF0E12007D
:10124C007C0E0001B86F010EB96F190EBA6F010E4A
:10125C00BB6FEC0EAC6F020EAD6F000EAE6F000EDE
:10126C00AF6FFE0EB06F020EB16F000EB26F000EBC
:10127C00B36FCE0EBC6F020EBD6F000EBE6F000EB4
:10128C00BF6FAC8A900EAB6E948E949C9EAA03D0CA
:08129C00AECF00F0FBD71200F9
:1012A400640E0001C86F020EC96F000ECA6F000EF3
:1012B400CB6F440ECC6F060ECD6F000ECE6F000EBA
:1012C400CF6F360E6F6F040E706F000E716F000ECD
:1012D400726F7C0E736F080E746F130E756F010EB0
:1012E400766FEE0EA86F060EA96F130EAA6F010E8D
:1012F400AB6FDC0EC46F030EC56F000EC66F000E1D
:10130400C76F949894968B988B9694889486C79E6E
:08131400C79C380EC66E1200E2
:10131C00800E0001FE11FF6F0DDCA3C009F1FF0E62
:10132C000A6F000E0B6F010E0C6F000E0D6F010E8D
:10133C000E6F2BDFA3C009F1000E01010A6F010E25
:10134C000B6F020E0C6F000E0D6F0E6B7EDE01C16B
:10135C0002F1000E0101036F02C101F0006A00C02E
:10136C0002F101C003F100510213000E031302C17C
:08137C0000F003C101F01200B2
:101384006C0E0001B86F010EB96F190EBA6F010E21
:10139400BB6FD80EAC6F020EAD6F000EAE6F000EB9
:1013A400AF6F920EB06F020EB16F000EB26F000EEF
:1013B400B36F120EBC6F030EBD6F000EBE6F000E36
:1013C400BF6F0F01218B900E226F98849892A4AA6C
:0A13D40003D01DCF00F0FBD712007C
:1013DE0003500718D8A403EF0AF002500618D8A439
:1013EE0003EF0AF001500518D8A403EF0AF00050DD
:0E13FE000418D8B4D8841200D894120012003B
:10140C0005C104F006C105F007C106F008C107F0DC
:10141C0001C100F002C101F003C102F004C103F0EC
:10142C00ADDD010ED8B0000E006E005209E001C116
:10143C0000F002C101F003C102F004C103F008D0B6
:10144C0005C100F006C101F007C102F008C103F0AC
:02145C0012007C
:08145E00067EB3EC05F012005C
:101466000450000A12E10550000A0FE10650000A76
:101476000CE10750000A09E1FF0E006EFF0E016E37
:101486007F0E026EFF0E036EA7D0086A096A075028
:10149600D8B4DEEF0AF00350D8B4E2EF0AF00250F7
:1014A60006180A6E028E068E0E6A02C008F001C089
:1014B6000CF000C00DF004500D5E0550D8A0053CA0
:1014C6000C5E0650D8A0063C085E086A0C6A0D6AD7
:1014D600D8A075EF0AF0D8900232013200320832F5
:1014E600010E0E6E0750035ED8A082EF0AF07E0E44
:1014F6000E240326D8B0E7EF0AF088EF0AF07E0E36
:101506000E240326D8A0ECEF0AF0180E0B6E0D364B
:101516000C3608360036013602360E360450005EAA
:101526000550D8A0053C015E0650D8A0063C025ED8
:1015360006340E120EA0A3EF0AF00D80AEEF0AF0ED
:10154600045000260550D8B0053C01260650D8B0F8
:10155600062802260D900B2E8AEF0AF0D4EF0AF029
:10156600D8900036013602360E360450005E05501D
:10157600D8A0053C015E0650D8A0063C025E0634A3
:101586000E10010B0D26D8B00C2AD8B4082AD8A400
:10159600D4EF0AF008320C320D32032AD8B4E7EF42
:1015A6000AF00AAE089E0850026E0C50016E0D50ED
:1015B600006EEFEF0AF0010E42DEEFEF0AF0020EC8
:1015C60017EC03F0EFEF0AF0040E0BEC03F0EFEF6D
:0A15D6000AF0080E6AEC03F01200A0
:1015E00001C104F002C105F003C106F004C107F017
:1015F00005C100F006C101F007C102F008C103F007
:10160000C3DC010ED8B0000E006E005209E001C12B
:1016100000F002C101F003C102F004C103F008D0E0
:1016200005C100F006C101F007C102F008C103F0D6
:021630001200A6
:101632000050086E0150006E016A026A036A0B6A6A
:101642000C6A960E036E0A6A00C001F008C000F030
:08165200086A026A63DD120060
:10165A0021D0CF0EAF6EAC94F4DD6BD0670EAF6EB7
:10166A00AC94EFDD66D0CF0EAF6EAC84EADD61D00C
:10167A00670EAF6EAC84E5DD5CD0440EAF6EAC8411
:10168A00E0DD57D0220EAF6EAC84DBDD52D0060E01
:10169A00006E58D00001000E006EE11908E10050FA
:1016AA00E01905E1120EDF1902E1DE51C00AD1E0AC
:1016BA00000E006EE11908E10050E01905E1250E5F
:1016CA00DF1902E1DE51800AC9E0000E006EE1195D
:1016DA0008E10050E01905E14B0EDF1902E1DE5185
:1016EA00000AC1E0000E006EE11908E10050E0199D
:1016FA0005E1960EDF1902E1DE51000AB9E0000E9B
:10170A00006EE11908E10050E01905E1E10EDF1968
:10171A0002E1DE51000AB1E0E151000A08E1E051BC
:10172A00010A05E1DF51C20A02E1DE51000AAAE01C
:10173A00AED77C0EC06F010EC16F190EC26F010EBB
:06174A00C36F006A1200EB
:1017500021D0CF0EAF6EAC9479DD6BD0670EAF6E3B
:10176000AC9474DD66D0CF0EAF6EAC846FDD61D00B
:10177000670EAF6EAC846ADD5CD0440EAF6EAC8495
:1017800065DD57D0220EAF6EAC8460DD52D0060E00
:10179000006E58D00001000E006EE11908E1005003
:1017A000E01905E1120EDF1902E1DE51C00AD1E0B5
:1017B000000E006EE11908E10050E01905E1250E68
:1017C000DF1902E1DE51800AC9E0000E006EE11966
:1017D00008E10050E01905E14B0EDF1902E1DE518E
:1017E000000AC1E0000E006EE11908E10050E019A6
:1017F00005E1960EDF1902E1DE51000AB9E0000EA4
:10180000006EE11908E10050E01905E1E10EDF1971
:1018100002E1DE51000AB1E0E151000A08E1E051C5
:10182000010A05E1DF51C20A02E1DE51000AAAE025
:10183000AED77C0EC06F010EC16F190EC26F010EC4
:06184000C36F006A1200F4
:10184600DEC001F1DFC002F1E0C003F1E1C004F146
:10185600E2C005F1E3C006F1E4C007F1E5C008F116
:10186600BCDE00C001F101C002F102C003F103C0F9
:1018760004F1E6C005F1E7C006F1E8C007F1E9C0EA
:1018860008F1ABDE00C0EAF001C0EBF002C0ECF0FC
:1018960003C0EDF0DEC001F1DFC002F1E0C003F1EC
:1018A600E1C004F1E2C005F1E3C006F1E4C007F1CE
:1018B600E5C008F1A8DD00C001F101C002F102C0D7
:1018C60003F103C004F1E6C005F1E7C006F1E8C084
:1018D60007F1E9C008F197DD00C0EEF001C0EFF0B6
:1018E60002C0F0F003C0F1F0EAC004F0EBC005F06E
:1018F600ECC006F0EDC007F0006A016A026A036AEE
:10190600C4EC07F0010ED8B0000E006E005223E0C2
:10191600EEC004F0EFC005F0F0C006F0F1C007F02D
:10192600EAC000F0EBC001F0ECC002F0EDC003F03D
:1019360093DDEAC004F0EBC005F0ECC006F0EDC0A4
:1019460007F08EDD00C0F6F001C0F7F002C0F8F037
:1019560003C0F9F005D00001F66BF76BF86BF96B75
:10196600046A056A066A076AF6C000F0F7C001F065
:10197600F8C002F0F9C003F02FDD010ED8A4000E66
:10198600006E005206E00001F26BF36BF46BF56B30
:101996004CD1DEC004F0DFC005F0E0C006F0E1C0C7
:1019A60007F0EAC000F0EBC001F0ECC002F0EDC0B9
:1019B60003F012DD010ED8A4000E006E005244E0C2
:1019C600E6C004F0E7C005F0E8C006F0E9C007F09D
:1019D600E2C000F0E3C001F0E4C002F0E5C003F0AD
:1019E6003BDD00C0FAF001C0FBF002C0FCF003C012
:1019F600FDF0EEC004F0EFC005F0F0C006F0F1C057
:101A060007F0EAC000F0EBC001F0ECC002F0EDC058
:101A160003F022DD00C004F001C005F002C006F0AC
:101A260003C007F0FAC000F0FBC001F0FCC002F0F2
:101A3600FDC003F015DD00C0F2F001C0F3F002C0F6
:101A4600F4F003C0F5F0B2D0E2C004F0E3C005F054
:101A5600E4C006F0E5C007F0EAC000F0EBC001F014
:101A6600ECC002F0EDC003F0B7DC010ED8A4000E06
:101A7600006E00524EE0DEC004F0DFC005F0E0C0AC
:101A860006F0E1C007F0E6C000F0E7C001F0E8C0EC
:101A960002F0E9C003F0E0DC00C0FAF001C0FBF0A0
:101AA60002C0FCF003C0FDF0EEC004F0EFC005F08C
:101AB600F0C006F0F1C007F0EAC000F0EBC001F09C
:101AC600ECC002F0EDC003F0C7DC00C004F001C0BA
:101AD60005F002C006F003C007F0FAC000F0FBC034
:101AE60001F0FCC002F0FDC003F0BADC000E046E8B
:101AF600000E056E000E066E800E076EB3EC05F046
:101B060000C0F2F001C0F3F002C0F4F003C0F5F03B
:101B16004DD0E2C004F0E3C005F0E4C006F0E5C035
:101B260007F0DEC000F0DFC001F0E0C002F0E1C067
:101B360003F092DC00C0FAF001C0FBF002C0FCF03A
:101B460003C0FDF0EEC004F0EFC005F0F0C006F0F3
:101B5600F1C007F0EAC000F0EBC001F0ECC002F003
:101B6600EDC003F079DC00C004F001C005F002C04E
:101B760006F003C007F0FAC000F0FBC001F0FCC09D
:101B860002F0FDC003F06CDC000E046E000E056E64
:101B9600000E066E810E076EB3EC05F000C0F2F083
:101BA60001C0F3F002C0F4F003C0F5F0000E046EBD
:101BB600000E056E400E066E810E076EF2C000F036
:101BC600F3C001F0F4C002F0F5C003F049DC00C038
:101BD600F2F001C0F3F002C0F4F003C0F5F0046ABD
:101BE600056A066A076AC4EC07F0010ED8B0000E53
:101BF600006E00521AE0F2C000F0F3C001F0F4C02B
:101C060002F0F5C003F0000E046E000E056E000E25
:101C1600066E7F0E076EB3EC05F000C0F2F001C051
:101C2600F3F002C0F4F003C0F5F0F2C000F0F3C028
:0C1C360001F0F4C002F0F5C003F0120051
:101C420027D0CF0EAF6EAC9426EC09F070D0670EA1
:101C5200AF6EAC9426EC09F06AD0CF0EAF6EAC84B6
:101C620026EC09F064D0670EAF6EAC8426EC09F066
:101C72005ED0440EAF6EAC8426EC09F058D0220E32
:101C8200AF6EAC8426EC09F052D0060E006E58D02E
:101C92000001000E006EE11908E10050E01905E1B3
:101CA200120EDF1902E1DE51C00ACBE0000E006E17
:101CB200E11908E10050E01905E1250EDF1902E102
:101CC200DE51800AC4E0000E006EE11908E1005006
:101CD200E01905E14B0EDF1902E1DE51000ABDE019
:101CE200000E006EE11908E10050E01905E1960EC0
:101CF200DF1902E1DE51000AB6E0000E006EE119C2
:101D020008E10050E01905E1E10EDF1902E1DE51C0
:101D1200000AAFE0E151000A08E1E051010A05E1E1
:101D2200DF51C20A02E1DE51000AA9E0AED77C0E01
:101D3200C06F010EC16F190EC26F010EC36F006A30
:021D420012008D
:101D44003ED00F0120870D0E1F6F040E1E6F2185DC
:101D5400C2EC09F083D00F012087060E1F6F820E9C
:101D64001E6F2185C2EC09F079D00F012087030E84
:101D74001F6F400E1E6F2185C2EC09F06FD00F015A
:101D84002087010E1F6FA00E1E6F2185C2EC09F083
:101D940065D00F012087010E1F6F150E1E6F218560
:101DA400C2EC09F05BD00F0120871F6B8A0E1E6FF7
:101DB4002185C2EC09F052D0060E006E59D0000EF7
:101DC400006E0001E11908E10050E01905E1120E6E
:101DD400DF1902E1DE51C00AB4E0000E006EE11921
:101DE40008E10050E01905E1250EDF1902E1DE519A
:101DF400800AB1E0000E006EE11908E10050E0191C
:101E040005E14B0EDF1902E1DE51000AAEE0000EDF
:101E1400006EE11908E10050E01905E1960EDF19A2
:101E240002E1DE51000AABE0000E006EE11908E1A8
:101E34000050E01905E1E10EDF1902E1DE51000A6C
:101E4400A8E0E151000A08E1E051010A05E1DF518F
:101E5400C20A02E1DE51000AA6E0AED700016C0E10
:101E6400C06F010EC16F190EC26F010EC36F006AFD
:021E740012005A
:101E76005DD00001DFB102D0929401D092840F01AF
:101E860025957AD00001DFB102D0969601D09686CC
:101E960073D00001DFB102D0969401D096846CD045
:101EA6000001DFB102D0949601D0948665D000017E
:101EB600DFB102D0949801D094885ED00001DFB1E2
:101EC60002D0949A01D0948A57D00001DFB102D093
:101ED600989001D0988050D00001DFB102D0939441
:101EE60001D0938449D00001DFB102D0989401D08B
:101EF60098840F01239540D00001DFB102D098925B
:101F060001D098820F01239337D00001DFB102D0B0
:101F1600949601D0948630D00001DFB102D0949817
:101F260001D0948829D0010E006E28D00001DE5120
:101F3600000A9FE0DE51010AA5E0DE51020AA9E08F
:101F4600DE51030AADE0DE51040AB1E0DE51050AB6
:101F5600B5E0DE51060AB9E0DE51070ABDE0DE5102
:101F6600080AC1E0DE51090AC7E0DE510A0ACDE0DF
:0E1F7600DE510B0AD1E0D7D7000E006E12002C
:101F840059D00001DFB102D0929201D092820F01A8
:101F9400259376D00001DFB102D0929801D09288C7
:101FA4006FD00001DFB102D0969201D0968268D042
:101FB4000001DFB102D0949601D0948661D0000173
:101FC400DFB102D0949801D094885AD00001DFB1D7
:101FD40002D0949A01D0948A53D00001DFB102D088
:101FE400949401D094844CD00001DFB102D0939238
:101FF40001D0938245D00001DFB102D0949E01D07C
:10200400948E3ED00001DFB102D0949C01D0948C18
:1020140037D00001DFB102D0949601D0948630D03D
:102024000001DFB102D0949801D0948829D0010E28
:10203400006E28D00001DE51000AA3E0DE51010A3F
:10204400A9E0DE51020AADE0DE51030AB1E0DE513F
:10205400040AB5E0DE51050AB9E0DE51060ABDE026
:10206400DE51070AC1E0DE51080AC5E0DE51090A63
:10207400C9E0DE510A0ACDE0DE510B0AD1E0D7D720
:06208400000E006E1200C8
:10208A0059D00001DFB102D0929001D092800F01A5
:10209A00259176D00001DFB102D0949001D09480CE
:1020AA006FD00001DFB102D0969001D0968068D03F
:1020BA000001DFB102D0949601D0948661D000016C
:1020CA00DFB102D0949801D094885AD00001DFB1D0
:1020DA0002D0949A01D0948A53D00001DFB102D081
:1020EA00949201D094824CD00001DFB102D0939037
:1020FA0001D0938045D00001DFB102D0949E01D077
:10210A00948E3ED00001DFB102D0949C01D0948C11
:10211A0037D00001DFB102D0949601D0948630D036
:10212A000001DFB102D0949801D0948829D0010E21
:10213A00006E28D00001DE51000AA3E0DE51010A38
:10214A00A9E0DE51020AADE0DE51030AB1E0DE5138
:10215A00040AB5E0DE51050AB9E0DE51060ABDE01F
:10216A00DE51070AC1E0DE51080AC5E0DE51090A5C
:10217A00C9E0DE510A0ACDE0DE510B0AD1E0D7D719
:06218A00000E006E1200C1
:10219000DEC0E1F0DFC0E2F0E0C0E3F00DD0A00E61
:1021A000C86E52EC09F045D0280EC86E52EC09F00A
:1021B00040D0040E006E3FD0E1C0F6FFE2C0F7FF52
:1021C000E3C0F8FF0900F5CF01F00900F5CF02F0F8
:1021D0000900F5CF03F00900F5CF04F00450000A20
:1021E00008E10350010A05E10250860A02E10150AC
:1021F000A00AD5E0E1C0F6FFE2C0F7FFE3C0F8FFB8
:102200000900F5CF01F00900F5CF02F00900F5CF84
:1022100003F00900F5CF04F00450000A08E1035070
:10222000060A05E102501A0A02E10150800ABCE0E8
:08223000C0D7000E006E120081
:10223800DEC0E1F0DFC0E2F0E0C0E3F00DD0A00EB8
:10224800C86E52EC09F045D0280EC86E52EC09F061
:1022580040D0040E006E3FD0E1C0F6FFE2C0F7FFA9
:10226800E3C0F8FF0900F5CF01F00900F5CF02F04F
:102278000900F5CF03F00900F5CF04F00450000A77
:1022880008E10350010A05E10250860A02E1015003
:10229800A00AD5E0E1C0F6FFE2C0F7FFE3C0F8FF0F
:1022A8000900F5CF01F00900F5CF02F00900F5CFDC
:1022B80003F00900F5CF04F00450000A08E10350C8
:1022C800060A05E102501A0A02E10150800ABCE040
:0822D800C0D7000E006E1200D9
:1022E000DEC0E1F0DFC0E2F0E0C0E3F00DD0A00E10
:1022F000C86E52EC09F045D0280EC86E52EC09F0B9
:1023000040D0040E006E3FD0E1C0F6FFE2C0F7FF00
:10231000E3C0F8FF0900F5CF01F00900F5CF02F0A6
:102320000900F5CF03F00900F5CF04F00450000ACE
:1023300008E10350010A05E10250860A02E101505A
:10234000A00AD5E0E1C0F6FFE2C0F7FFE3C0F8FF66
:102350000900F5CF01F00900F5CF02F00900F5CF33
:1023600003F00900F5CF04F00450000A08E103501F
:10237000060A05E102501A0A02E10150800ABCE097
:08238000C0D7000E006E120030
:10238800C2C0E1FFC3C0E2FFDEC0E9FFDFC0EAFF71
:10239800EECFE6FFC0C000F0C1C001F026EC01F0AE
:0423A800006A1200B5
:1023AC00086A096A000E076203645BEF12F00250C0
:1023BC0006180A6E075003267E0ED8A0ECEF11F01B
:1023CC00035ED8B060EF12F0F0EF11F0035ED8A00E
:1023DC0065EF12F0028E068E02C00EF001C00BF0FB
:1023EC0000C00DF000500402F4CF0CF001500502B7
:1023FC00F4CF00F0F3CF08F00402F3500C26F450A5
:10240C000822000E00220D500502F3500C26F45049
:10241C000822000E002202500402F3500826F45049
:10242C00002202500502016A000E0122F350002620
:10243C00F45001220D500602F3500826F4500022ED
:10244C00026A000E012202220B500602F3500026F3
:10245C00F4500122000E02220E500602F350012607
:10246C00F450022202BE43EF12F008360036013659
:10247C0002360306D8B465EF12F056EF12F0D8808E
:10248C00800E08640030000E002201220222D8A027
:10249C0056EF12F0023201320032034A60EF12F0B2
:1024AC000AAE029E000E68EF12F0010E17EC03F05C
:1024BC0068EF12F0020E0BEC03F068EF12F0040E52
:0624CC006AEC03F01200AF
:1024D200300E0001DE25006E000EDF21016E000EBF
:1024E200E021026E1C0E0024F66E000E0120F76E33
:1024F200000E0220F86E0900F5CFA4F00900F5CF16
:10250200A5F00900F5CFA6F00900F5CFA7F012005B
:10251200DEC0FEF08EEC09F000C0DFF001C0E0F09A
:10252200140E0001FE6F8EEC09F000C0E5F001C050
:10253200E6F0DFC000F0E0C001F019EC0BF000C0E3
:10254200E1F001C0E2F002C0E3F003C0E4F0E5C054
:1025520000F0E6C001F019EC0BF000C004F001C07D
:1025620005F002C006F003C007F0E1C000F0E2C0CF
:1025720001F0E3C002F0E4C003F033EC0AF0120011
:102582000D6A086A0050D8B4000C04180A6E0ABE1C
:102592000D1E0B6A04AE02D0041E042A00AE02D045
:1025A200001E002A005004100A6E0ABE1FD00450FA
:1025B200085E003600340836045008260036060E3F
:1025C2000C6E00340836045000B0085E00A00826E5
:1025D20000360C2EF6D700A008260BB015D00DAE93
:1025E200000C001E002A081E082A000C04AE09D0A6
:1025F20000BE04D00050086E006AF1D7006A002ABB
:10260200000C001E0B2AD3D7082A0450085CD8A459
:0E261200E6D7086A002A00AEE2D7FF0C1200DD
:10262000DEC004F0DFC005F004C002F005C003F016
:10263000044A052AE0C000F0E1C001F00001E04BCF
:10264000E12B00C0E9FF01C0EAFF02C0E1FF03C0C7
:10265000E2FFEECFE6FF02C0E9FF03C0EAFFEE5261
:0E26600001E0E2D7DEC000F0DFC001F01200A2
:10266E00DEC0F6FFDFC0F7FFE0C0F8FF0900F5CFD0
:10267E009BF00900F5CF9CF00900F5CF9DF0090005
:10268E00F5CF9EF0040E0001DE25F66E000EDF2162
:10269E00F76E000EE021F86E0900F5CF9FF00900ED
:1026AE00F5CFA0F00900F5CFA1F00900F5CFA2F00B
:1026BE00080EDE25F66E000EDF21F76E000EE0210D
:1026CE00F86E0900F5CF97F00900F5CF98F00900E4
:1026DE00F5CF99F00900F5CF9AF00C0EDE25F66EC7
:1026EE00000EDF21F76E000EE021F86E0900F5CF27
:1026FE008FF00900F5CF90F00900F5CF91F00900A9
:10270E00F5CF92F0100EDE25F66E000EDF21F76E7D
:10271E00000EE021F86E0900F5CF93F00900F5CF19
:10272E0094F00900F5CF95F00900F5CF96F0120060
:10273E00090E0B6E1E0E0C6EE40E0D6E0D2EFED7D8
:0C274E000C2EFCD70B2EFAD70000120056
:10275A0016D0D1C0DEF0D2C0DFF092DC1BD0D1C0DF
:10276A00DEF0D2C0DFF009DC15D0D1C0DEF0D2C075
:10277A00DFF03BEC0FF00ED0010E006E0BD0000123
:10278A00D051000AE6E0D051010AE9E0D051020A2C
:06279A00ECE0F2D7120092
:1027A0001BD0D1C0DEF0D2C0DFF0D3C0E0F098DDA6
:1027B0001ED0D1C0DEF0D2C0DFF0D3C0E0F03CDDEF
:1027C00016D0D1C0DEF0D2C0DFF0D3C0E0F0E0DC44
:1027D0000ED0010E006E0BD00001D051000AE1E0D6
:1027E000D051010AE6E0D051020AEBE0F2D7120024
:1027F0000001DC6BDD6BD0C0D8F0D1C0D9F0D2C005
:10280000DAF0D3C0DBF0DB51FF0A08E1DA51FF0A4E
:1028100005E1D951FF0A02E1D851FF0A0CE1D4C009
:10282000DEF0D5C0DFF0670EE06F000EE16FF8DE7E
:10283000030E006EEBD1010ED66FDAAF0ED0800E14
:10284000DA19006E00C0DAF0D62BD4C0E1FFD5C093
:10285000E2FF2D0EE66ED44BD52B000E006EDB1979
:1028600008E10050DA1905E10050D91902E1D85108
:10287000000A0BE1D4C0DEF0D5C0DFF0610EE06FDE
:10288000000EE16FCDDE006AC1D1DB51FF0A08E125
:10289000DA51000A05E1D951000A02E1D851000AD3
:1028A0000CE1D4C0DEF0D5C0DFF0630EE06F000EA7
:1028B000E16FB6DED6C000F0A9D1000E046E000EA6
:1028C000056E000E066E7F0E076ED8C000F0D9C0F0
:1028D00001F0DAC002F0DBC003F0C4EC07F0010E37
:1028E000D8B0000E006E00521BE0D8C000F0D9C076
:1028F00001F0DAC002F0DBC003F0000E046E000E3F
:10290000056E200E066E820E076E50DD00C0D8F0F8
:1029100001C0D9F002C0DAF003C0DBF0DD07CDD78B
:10292000000E046E000E056E200E066E820E076EFF
:10293000D8C000F0D9C001F0DAC002F0DBC003F06B
:10294000C4EC07F0000ED8B0010E006E00521BE080
:10295000D8C000F0D9C001F0DAC002F0DBC003F04B
:10296000CD0E046ECC0E056E4C0E066E7B0E076E01
:102970001DDD00C0D8F001C0D9F002C0DAF003C0FC
:10298000DBF0DD2BCDD7FF0ED815086EFF0ED91565
:10299000096E7F0EDA150A6E000EDB150B6E08C08D
:1029A00004F009C005F00AC006F00BC007F00436B9
:1029B0000490053606360736000ED815006E000E58
:1029C000D915016E000EDA15026EFF0EDB15036ECF
:1029D00000C0D8F001C0D9F002C0DAF003C0DBF0CB
:1029E0000450D811006E0550D911016E0650DA114D
:1029F000026E0750DB11036E00C0D8F001C0D9F0A1
:102A000002C0DAF003C0DBF07F0EDB5D006E00C0B9
:102A1000D7F0010EDB6F00C004F0D8C000F0D9C0C1
:102A200001F0DAC002F0DBC003F0045007E000362A
:102A30000090013602360336FF0FF8D700C0D8F0F9
:102A400001C0D9F002C0DAF003C0DBF0D4C0E1FF6E
:102A5000D5C0E2FFDB51300FE66ED44BD52B800E94
:102A6000DD19006E800E010A005C08E3800E060A84
:102A7000006E800EDD19005C01E30AD0D4C0E1FFD6
:102A8000D5C0E2FF2E0EE66ED44BD52B010EDC6FC7
:102A9000060ED76FD751000A54E0DB6BD8C000F0A8
:102AA000D9C001F0DAC002F0DBC003F000360090BC
:102AB0000136023603360036009001360236033600
:102AC000D8510026D9510122DA510222DB510322CA
:102AD00000C0D8F001C0D9F002C0DAF003C0DBF0CA
:102AE000D8C000F0D9C001F0DAC002F0DBC003F0BA
:102AF0000036009001360236033600C0D8F001C01F
:102B0000D9F002C0DAF003C0DBF0D4C0E1FFD5C0D9
:102B1000E2FFDB51300FE66ED44BD52BDC51000ABF
:102B20000EE1DD07DD51000A0AE1D4C0E1FFD5C0A6
:102B3000E2FF2E0EE66ED44BD52B010EDC6FD707CD
:102B4000A9D7FF0ED425E96EFF0ED521EA6EEE500F
:102B5000300A05E1010ED45F000ED55BF2D7FF0EFF
:102B6000D425E96EFF0ED521EA6EEE502E0A04E15F
:102B7000010ED45F000ED55BDD51000A41E0D4C0E8
:102B8000E1FFD5C0E2FF650EE66ED44BD52B800E7B
:102B9000DD19006E800E000A005C0BE2D4C0E1FF7C
:102BA000D5C0E2FF2D0EE66ED44BD52BDD510008CB
:102BB000DD6FDDC0D7F0800E090A006E800EDD19D2
:102BC000005C0EE20A0E046ED7C000F0DADCD4C05E
:102BD000E1FFD5C0E2FF0050300FE66ED44BD52B9D
:102BE0000A0E046ED7C000F0CCDC08C000F0D4C0E0
:102BF000E1FFD5C0E2FF0050300FE66ED44BD52B7D
:0E2C0000D4C0E1FFD5C0E2FFE66A006A120010
:102C0E00800E0001D011D26FD1C0D3F0A0EC05F030
:102C1E00A3C009F1D20E0A6F000E0B6F020E0C6FDD
:0C2C2E00000E0D6F0E6BCBEC08F01200D6
:102C3A00D6C0A3F0D3C0DEF0D4C0DFF0D5C0E0F038
:102C4A0011DDD0C0DEF0D1C0DFF0D2C0E0F03CDC54
:022C5A00120066
:102C5C00D0C0D3F0D1C0D4F00D0E0001D56F0A0E48
:102C6C00D66F3AD0D3C0DEF0D4C0DFF0C4EC11F094
:102C7C003ED0D3C0E9FFD4C0EAFFEE520AE0D3C085
:102C8C00DEF0D4C0DFF0C4EC11F00001D34BD42B38
:102C9C00F0D72DD0D3C0E9FFD4C0EAFFEE520AE042
:102CAC00D3C0DEF0D4C0DFF0C4EC11F00001D34B84
:102CBC00D42BF0D70001D50EDE6F000EDF6FC4EC05
:102CCC0011F0D60E0001DE6F000EDF6FC4EC11F0B8
:102CDC000ED0060E006E0CD00001D251000AC2E0DC
:102CEC00D251010AC6E0D251020AD4E0F2D7006AEE
:022CFC001200C4
:102CFE002FD0D1C0DEF0D2C0DFF0D3C0E0F0D4C010
:102D0E00E1F0A8EC0BF032D0D1C0DEF0D2C0DFF093
:102D1E00D3C0E0F0D4C0E1F021EC0EF027D0D1C04A
:102D2E00DEF0D2C0DFF0D3C0E0F0D4C0E1F0A2EC10
:102D3E000EF01CD0D1C0DEF0D2C0DFF0D3C0E0F078
:102D4E00D4C0E1F02DEC0BF011D0010E006E0ED0C0
:102D5E000001D051000ACDE0D051010AD5E0D0518A
:0E2D6E00020ADDE0D051100AE5E0EFD71200B6
:102D7C000001DC6B100EDC5D4DE2160EDE6F89EC93
:102D8C0012F000C0D0F001C0D1F002C0D2F003C0EC
:102D9C00D3F0180E0001DE6F89EC12F000C0D4F0F5
:102DAC0001C0D5F002C0D6F003C0D7F01A0E000156
:102DBC00DE6F89EC12F0D0C0DEF0D1C0DFF0D2C0F3
:102DCC00E0F0D3C0E1F0D4C0E2F0D5C0E3F0D6C05F
:102DDC00E4F0D7C0E5F000C0E6F001C0E7F002C0B7
:102DEC00E8F003C0E9F023EC0CF0D8C004F0D9C033
:102DFC0005F0DAC006F0DBC007F0B3EC05F000C05C
:102E0C00D8F001C0D9F002C0DAF003C0DBF0000149
:102E1C00DC2BB0D7000E046E000E056E000E066E95
:102E2C00830E076ED8C000F0D9C001F0DAC002F0F2
:102E3C00DBC003F033EC0AF000C0D8F001C0D9F0CD
:0A2E4C0002C0DAF003C0DBF0120050
:102E56000001D06B070ED16F010ED26F7BDC000133
:102E6600D06B520ED16F300ED26F000ED36F95DC41
:102E7600100E0001D06F800ED16F250ED26F000E9E
:102E8600D36FD46F39DF150E0001D06F000ED16FEE
:102E9600020ED26FE0DE090E0B6E1E0E0C6EE40EF5
:102EA6000D6E0D2EFED70C2EFCD70B2EFAD700007A
:022EB600120008
:102EB8000900F5CFE6FF0006FBE10106F9E1120083
:102EC80059DF00C077F001C078F002C079F003C084
:102ED8007AF000C0D0F001C0D1F002C0D2F003C037
:102EE800D3F07B0E0001D46F000ED56F7DDC7B0E16
:102EF800D06F000ED16F020ED26FACDE1CDC120058
:102F0800880E0001D06F2F0ED16F000ED26F3E0ECB
:102F1800D36F300ED46F000ED56F290ED66F89DEB1
:102F28004D0ED06F000ED16F020ED26F93DE000EE1
:102F38000001D06F100E006E080E0010D16F020E47
:102F4800D113010ED1135FDE0F0E0001D06F020EF8
:102F5800D16F59DE010E0001D06F000ED16F53DE24
:102F68002A0E0001D06F000ED16F020ED26F72DEF2
:022F7800120045
:0E2F7A002BEC18F06BDFC3DFA2DFFED7FFD712
:1030560010EE15F0560E006E010E016EE80EF66EBD
:0E3066002F0EF76E000EF86E5CEC17F01200E5
:102F8800980119018A0119015E0119013401190119
:102F9800260119015001190142011901A60119015F
:102FA80008021901FA01190124021901160219016E
:102FB80008030000280300001E0300009C02000014
:102FC8007E020000B0020000BA020000C402000045
:102FD8008802000096030000A0030000A60200007B
:102FE8002D2D2D2053797374656D20696E697420B9
:052FF8002D2D2D20002D
:102FFD002D2D2D205374617274206D656173757262
:0B300D00656D656E74202D2D2D2000D8
:0430180000000000B4
:04301C0000000000B0
:103020002D2D2D20436F6C6F7220496E6974202DF9
:043030002D2D200022
:0230340030006A
:04303600494E4600B9
:04303A004E614E0095
:10303E0044060000DC03000036040000EE06130117
:04304E007C081301E6
:04305200A086010053
:020000040030CA
:0E00000015137F7CF98B91FFFFC0FFE0FF40DE
:00000001FF
